S01400004B3232626F6F746C6F616465722E73313906
S11300007021FF1F310E00000F0E00001B0E0000B8
S1130010590E00005B0E00005D0E000000000000A1
S11300200000000000000000000000005F0E00005F
S1130030610E000000000000630E0000650E000069
S1130040670E0000670E0000670E0000670E0000D8
S1130050670E0000670E0000670E0000670E0000C8
S1130060670E0000670E0000670E0000670E0000B8
S1130070670E0000670E0000670E0000670E0000A8
S1130400FFFFFFFFFFFFFFFFFFFFFFFFFEFBFFFFFD
S1130410BFF34F8FDFF80C07006810F4E060DFF8DB
S113042008170843DFF8FC160860BFF34F8F00BFBE
S1130430FDE740F20310DFF8F4160860DFF8F00679
S1130440006830F40030DFF8E816086070474AF2BC
S11304500260DFF8E01608804BF28040DFF8D41623
S11304600880704710B400E0521E002A09D003002F
S1130470581C0C00611C1B782478A342F4D0012082
S113048000E0002010BC70470000000081B0009024
S1130490009180F3088880F309888F4601B0704783
S11304A00020DFF89416C870DFF890064079DFF872
S11304B088168870DFF884068079DFF87C16487027
S11304C0DFF87806C079DFF870160870704770B5E9
S11304D004000026E078AA21C0B202191171552146
S11304E0C0B202195171851D05E0F6B2305D00F00D
S11304F070FB6D1E761CEDB2002DF6D170BD5FF061
S1130500A270DFF83C160860DFF83806006850F483
S11305100070DFF830160860DFF82C060068DFF89A
S11305202C160840DFF820160860DFF8240600685F
S1130530DFF818160840DFF818160860A420DFF862
S1130540141608700020DFF8101608700020DFF879
S11305500C1608709820DFF808160870DFF80406F7
S113056000788007FAD5DFF8FC050078C006FAD4D5
S11305701720DFF8F41508700020DFF8F015087074
S11305800020DFF8EC150870DFF8D8050078C0B259
S113059010F00C000828F7D18020DFF8BC15087093
S11305A00020DFF8B81508709A20DFF8B415087039
S11305B02420DFF8A01508702320DFF8B015087098
S11305C04020DFF8AC150870DFF898050078400685
S11305D0FAD5DFF890050078C0B210F00C000828B6
S11305E0F7D18020DFF8701508700020DFF86C1553
S11305F008701A20DFF8681508702320DFF86C15DE
S113060008704020DFF868150870DFF85805007896
S11306104006FAD5DFF84C050078C0B210F00C00A3
S11306200C28F7D17047000030B5A3B0002001902A
S1130630002472B6DFF83C05006850F4E050DFF89F
S113064034150860DFF8FC0400685FF0FF30DFF861
S1130650F4140860DFF82005006850F00100DFF8AA
S113066018150860FFF7E5FEDFF81005006850F480
S11306708070DFF808150860DFF80405006850F0A2
S11306802000DFF8FC140860DFF8F804006850F07C
S11306902000DFF8F014086044F20800006810F14C
S11306A0010F12D00822DFF8E0144FF48840FFF75E
S11306B0D9FE012809D0DFF8D4040068800304D5EA
S11306C0DFF8CC0400680B280DD10124DFF8B40452
S11306D0006830F02000DFF8AC1408600020DFF878
S11306E0B014086011E0DFF8A80400680A280CD1EF
S11306F00224DFF89004006830F02000DFF884144E
S113070008600020DFF888140860E4B2002C28D0C8
S1130710FFF7F5FE40F20230DFF8781408604FF47A
S11307204070DFF87414086000F03EFA19E000200D
S1130730DFF808149DF8002050549DF80000401C78
S11307408DF800009DF800009628F0DB0198401C0D
S1130750019001980A2804D3E4B2022C01D1FFF7D6
S113076057FEE4B2002C00F0AB8100208DF80100AC
S1130770FF208DF8030000208DF8020001208DF881
S1130780000000208DF80800FFF761FE00F04AFA2F
S113079000F026FADFF8A4130870DFF8A00300784D
S11307A0242804D10020019001208DF801009DF837
S11307B00100012844D100F013FADFF880134870D7
S11307C000F00EFA00F00CFADFF87013C870DFF8CE
S11307D06C03C0788DF80200DFF86003C078801DD8
S11307E08DF8030004208DF800000AE09DF8005005
S11307F0681C8DF8000000F0F3F9DFF84013EDB247
S113080068549DF80200411E8DF80210C0B2002801
S1130810ECD19DF80050681C8DF8000000F0E0F960
S1130820C649EDB268549DF80050681C8DF800006C
S113083000F0D6F9C149EDB2685400208DF80100EA
S1130840BE489DF80310081810F8020CAA280AD113
S1130850BA489DF80310081810F8010C552802D165
S113086001208DF808009DF8080001287FF46EAF80
S1130870002000210022B1480079452800F0BA8008
S1130880472800F00A81492806D0522800F0EA805F
S1130890572800F0C0800CE1042000E0401CBF4950
S11308A0C0B2411811F8031CA44AC0B28154A34930
S11308B0C0B2415C0029F1D12321A04AC0B28154C5
S11308C0401C010000E0401CB44AC0B2C9B2431A43
S11308D09A18D27A994BC0B2C254984AC0B2825C78
S11308E0002AF0D12321954AC0B28154401CAB495F
S11308F0098B89B2090A914AC0B28154401CA749A4
S1130900098B8E4AC0B28154401CA449C98A89B259
S1130910090A8A4AC0B28154401CA049C98A874A3C
S1130920C0B28154401C9D49897F844AC0B281541D
S1130930401C9A49497F814AC0B28154401C97495E
S1130940097F7E4AC0B28154401C944991F8261014
S11309507A4AC0B28154401C904991F82510774AD4
S1130960C0B28154401C8D4991F82410734AC0B21E
S11309708154401C894991F82A10704AC0B28154AC
S1130980401C864991F829106C4AC0B28154401C1D
S1130990824991F82810694AC0B28154401C7F49A9
S11309A091F82210654AC0B28154401C7B4991F8E9
S11309B02110624AC0B28154401C784991F8201039
S11309C05E4AC0B28154401C744909785B4AC0B283
S11309D08154401C001F5949C8705848FFF777FDDF
S11309E0E4B2012C03D14FF4884000F049F9FFF739
S11309F02EFD5EE0FFF754FD4F48006800F040F91B
S1130A00002805D100204D49C8704C48FFF75FFD10
S1130A10FFF71DFD4DE0FFF743FD4848027A002132
S1130A20092007E0454BC0B2C35C03ADC9B24B55C6
S1130A30491C401CC9B2D2B29142F3D3D2B20420B1
S1130A4092FBF0F203A93C48006800F004F9002886
S1130A5005D100203949C8703848FFF738FDFFF741
S1130A60F6FC26E0FFF71CFD3448027A002008E07B
S1130A7031490968C0B2415C304BC0B2C318197126
S1130A80401CC0B2D2B29042F2D32C48C2702B4860
S1130A90FFF71DFDFFF7DBFC0BE0E4B2012C05D1F1
S1130AA0022239494FF4884000F0D5F8FFF7B0FC32
S1130AB0FFE700208DF8010000208DF8000041E6DA
S1130AC00020374908702D48006830F480702B49A5
S1130AD008602B48006830F0200029490860294844
S1130AE0006830F02000274908602248006830F48C
S1130AF0E05020490860134800680020114908604C
S1130B004FF480402749086000202149086044F2DE
S1130B10040001684FF480400068FFF7B7FC002030
S1130B2023B030BD0CED00E00400FA0544A00440FD
S1130B3054F00F400C2005406C01FF1FC800FF1F3C
S1130B40448004403880044048900440FFF8FFFE8D
S1130B504C90044001400640005006400C400640C2
S1130B60004006400640064003400640044006405C
S1130B7005400640348004403C80044014C00440D6
S1130B80D4F00F40C0F00F40500E000050F00F4062
S1130B90F8FF002004D0044000D00440440D0000BD
S1130BA003B0064008ED00E080B501201649087046
S1130BB03820164908700020154908700C20154982
S1130BC0087001E000F00CF8134800788006F9D4AE
S1130BD001BD114909784906FBD5104908707047D1
S1130BE080B500200E48009001E0FFF730FC0A4871
S1130BF00078800604D40098411E00910028F4D1A6
S1130C0006480078C0B202BD00B0064001B00640FC
S1130C100AB0064003B0064004B0064007B00640E0
S1130C2000530700002007E00FF26901411811F892
S1130C30011C2B4A8154401CC828F5D3704780B549
S1130C40284A10600620274AD070264841600820B0
S1130C502549884702BD70B504000D00160000E068
S1130C60241D3000461E002808D029682000FFF704
S1130C70E6FF2D1D0028F3D0012000E0002070BD08
S1130C8080B51849086009201649C870042016491F
S1130C90884702BD10B41549124A154B1B781B0630
S1130CA0FBD57023124C237003E013780B70521C95
S1130CB0491C0300581EDBB2002BF6D10C48007807
S1130CC050F080000A490870094800780006FBD5F6
S1130CD007480078C0B210F0310010BC7047000023
S1130CE00000FF1F6001FF1F0100FF1F04000240FE
S1130CF0000002400D48006850F470000B49086081
S1130D004CF220500A4908804DF628100849088002
S1130D1000200849088000200749088042F210702A
S1130D2006490880D12006490880704788ED00E014
S1130D300E200540162005400420054006200540ED
S1130D4000200540024D4B3232464E3531320031DF
S1130D502E300000000000000000000880000000A9
S1130D600000080000400000FC030000FF03000036
S1130D7010B5074979441831064C7C44163404E014
S1130D800A68081D511888470146A142F8D110BDD0
S1130D904C000000580000004EF68851CEF20001CD
S1130DA0086840F470000860BFF34F8FBFF36F8F83
S1130DB04FF00070E1EE100A704750F8041B61B167
S1130DC050F8042BD30744BFA9F101039A18002358
S1130DD0091F42F8043BFAD1EFE77047DFFFFFFF3A
S1130DE0700100000000FF1F0000000000F00BF87D
S1130DF0002801D0FFF7BCFF0020C046C046FFF723
S1130E0013FC00F002F80120704700F001B8FEE77F
S1130E100746384600F002F8FBE7FEE780B5C04617
S1130E20C046024A11001820ABBEFBE726000200B0
S1130E300248804702480047FEE70000F50C000026
S1130E40450E0000C046C046FFF7A6FFFFF7CEFFE1
S1130E504150505F4F4B0000FEE7FEE7FEE7FEE720
S10B0E60FEE7FEE7FEE7FEE7F2
S9030E45A9
