:020000040000FA
:1000000068040020E1000000E9000000EB000000AF
:1000100000000000000000000000000000000000E0
:10002000000000000000000000000000ED000000E3
:100030000000000000000000EF000000F1000000E0
:10004000F3000000F3000000F3000000F3000000E4
:10005000F3000000F3000000F3000000F3000000D4
:10006000F3000000F3000000F3000000F3000000C4
:10007000F3000000F3000000F3000000F3000000B4
:10008000F3000000F3000000F3000000F3000000A4
:10009000F3000000F3000000F3000000F300000094
:1000A000F3000000F3000000F3000000F300000084
:1000B000F3000000F3000000F3000000F300000074
:1000C0000348854600F01AF8004800471104000074
:1000D0006804002080F3088880F30988084700003E
:1000E0000448804704480047FEE7FEE7FEE7FEE7D6
:1000F000FEE7FEE7C1020000C1000000064C01253A
:10010000064E05E0E36807CC2B430C3C98471034BF
:10011000B442F7D3FFF7D8FFA8030000C8030000DC
:10012000FF2004300449C86004484069082188431E
:10013000024948617047000000B0044080F00F4061
:100140000448C06804490840044908430149C8609C
:1001500000BFFEE700ED00E0FFFFFA050400FA052E
:1001600000200649C87006484079887004488079A4
:1001700048700348C07908707047000004000020F0
:1001800014000020F8B504460027E578AA21281DB0
:1001900021545521681D2154A81DC6B206E0E05D1A
:1001A00000F0D0F8701EC6B2781CC7B2002EF6D18F
:1001B000F8BD30B5034609E01C785B1C0D78491C7E
:1001C000AC4201D1521E01E0012030BD002AF3D122
:1001D0000020FAE710B504460448046009200349EA
:1001E000C870042000F004F810BD000008000020D2
:1001F00010B503461849194A00BF1748001F007878
:10020000802420400028F8D07020134C241F207038
:1002100003E010780870521C491C18465C1EE3B2BB
:100220000028F6D10C48001F0078802420430A4C97
:10023000241F207000BF0848001F00788024204041
:100240000028F8D00448001F007831242040044CD6
:1002500020602046006810BD040002400800002015
:10026000000000200348C068012109040843014937
:10027000C8607047003000F030B504460D460548B0
:10028000046006200349C870084645600820FFF74F
:10029000AFFF30BD0800002070B505460C4616467D
:1002A00008E002CC2846FFF7E7FF002801D0012034
:1002B00070BD2D1D3046761E0028F2D100BFF7E735
:1002C0000748807808210840002804D00448807836
:1002D0000843034988700020024908607047000005
:1002E00000D007400081044008B500210848009074
:1002F00000BF084A127920231A40002A04D100982E
:10030000421E00920028F4D10248C179084608BD77
:100310003333030000A0064010B58824200A0849A2
:100320000870084644700C20C87001E0FFF7DCFF3D
:1003300003480079202108400028F7D110BD0000B3
:1003400000A0064000BF044909794022114000295D
:10035000F9D00149C871704700A0064002E008C802
:10036000121F08C1002AFAD170477047002001E02F
:1003700001C1121F002AFBD170470000FFFFFFFFE1
:10038000FFFFFFFFFEFFFFFFFEFBFFFF4150505F3F
:100390004F4B00004D4B4C32365A31323800000082
:1003A0000000000000000000A40700000000002082
:1003B000080000005C030000AC07000008000020FB
:1003C000600400006C03000000000000000000005A
:1003D000000000000000000000000000000000001D
:1003E000000000000000000000000000000000000D
:1003F00000000000000000000000000000000000FD
:10040000FFFFFFFFFFFFFFFFFFFFFFFFFEFFFFFFFD
:10041000F0B597B000201690002672B6D348406819
:10042000012189060843D14948600846406B0721ED
:1004300089020843CD4948630846806B701E886373
:100440000846C06B01210843C849C863FFF768FE2E
:10045000C7484069FF2101310843C5494861C54883
:10046000406920210843C3494861084600682021AB
:100470000843C0490860012000038068401C002830
:1004800011D00822BC49BD48FFF793FE01280AD0CD
:10049000B8484038006908210840002803D0B8480F
:1004A000806B0B280AD10126B248006820218843BE
:1004B000B04908600020B24988630DE0B048806B05
:1004C0000A2809D10226AB48006820218843A9499F
:1004D00008600020AA498863002E06D0A948AA49CE
:1004E0004860801E8860FFF717FF06E10021159124
:1004F000FF211491002113910121129100211191EA
:10050000FFF7B0FEFFF7F0FEA0490870084600783C
:10051000242803D1002016900120159010A8007DFA
:10052000012839D1FFF7E0FE98494870FFF7DCFE5B
:10053000FFF7DAFE9549C8700846C1781391C07874
:10054000801DC1B214910421129108E0FFF7CCFE86
:1005500010A90C7A611CCAB212928C49085510A9D4
:10056000087B411ECAB213920028EFD1FFF7BCFEF0
:10057000014610A8047A601CC2B212928348015549
:10058000FFF7B2FE014610A8047A601CC2B21292B4
:100590007E4801550021159110A8007C801E7B49E2
:1005A000085CAA2807D110A8007C401E085C5528CA
:1005B00001D10120119010A80079012873D10024E5
:1005C00000270025552072494860AA2048606F48DE
:1005D000007949280AD004DC45281DD047286CD171
:1005E00062E052284AD0572867D123E0042401E072
:1005F000601CC4B2201F6749085C64490855002884
:10060000F6D1201FC8700846FFF7BCFD012E02D1AD
:100610005A48FFF7DFFD51E0FFF7A2FD5E49086889
:10062000FFF7D8FD002804D15849C8700846FFF7E5
:10063000A9FD43E0FFF794FD5448057A00270924FB
:1006400007E05248005D01A9C855781CC7B2601C7C
:10065000C4B2AF42F5DBE917890F49198A104E4938
:100660000095086801A9FFF717FE002805D1474942
:10067000C8700846FFF786FD20E000BFFFF770FD59
:100680004248057A002407E043480068015D3F4A7C
:10069000201D1154601CC4B2AC42F5DB3B48C57050
:1006A000FFF770FD0AE01DE0012E04D1022232495D
:1006B0003248FFF7F1FDFFF743FD00BF00BF002107
:1006C0001591129109E00021304A10A8007A1154C6
:1006D00010A8007A401CC1B2129110A8007A5028CC
:1006E000F1DB00BF1698401C169016980A2803D319
:1006F000022E01D1FFF724FD00BF002E00D0F5E649
:1007000000202649C8701A4840698915884318494D
:1007100048611848406920218843164948610846C5
:10072000006820218843134908601048406801216F
:10073000890688430D4948600846406B07218902B5
:1007400088430A4948630846806B0020886301207B
:100750000003134988600020094988634A1403CACA
:10076000FFF7B8FC002017B0F0BD00000080044087
:1007700000C00440C0F00F408C030000F8FF0100EF
:10078000C02F00200202000000900440140000204E
:1007900000810440940300000400002000A00640F3
:0C07A00000ED00E0000000000000000080
:04000005000000C136
:00000001FF
