S0190000626F6F746C6F616465725F6B6C32365F63772E68657871
S1130000F82F00206D050000510500005105000087
S113001000000000000000000000000000000000DC
S11300200000000000000000000000005105000076
S11300300000000000000000510500005105000010
S11300405105000051050000510500005105000054
S1130050000000005105000051050000510500009A
S11300605105000051050000510500005105000034
S11300705105000051050000510500005105000024
S11300805105000051050000510500005105000014
S11300905105000051050000510500005105000004
S11300A051050000510500005105000051050000F4
S11300B051050000510500005105000051050000E4
S1130400FFFFFFFFFFFFFFFFFEFFFFFFFEFBFFFFFE
S1130410034B8022D96850020843D8607047C04615
S1130420003000F010B5124A137859B20029FADAF4
S11304307024104B1470011DCCB2D9B28C4207D079
S11304400D490E4C591809190C781C700133F2E748
S11304501078802303431370147861B20029FBDA07
S1130460034A31231078064C1840206010BDC04662
S113047000000240040002401CF0FF1FFCFFFDBF0F
S113048028F0FF1F08B5044B092218600420DA7015
S1130490FFF7C8FF08BDC0461CF0FF1F08B5044B9A
S11304A0062218600820DA705960FFF7BBFF08BD08
S11304B01CF0FF1FF8B5071C0E1C141C0D1CB81BE8
S11304C02818002C07D002CDFFF7E8FF013C0028D4
S11304D0F5D0012000E0201CF8BD000000B5034B5E
S11304E01A795106FBD5D87100BDC04600A006405C
S11304F007B50A4B01930A480179021C8B0601D502
S1130500D0790EBD019B581E0190002BF8D0054AEE
S1130510054B5521AA20D150D050ECE733330300CA
S113052000A006400070044004110000074B0022A4
S113053088200C2110B51A701C1C5870D9702379AE
S11305409A0602D5FFF7D4FFF9E710BD00A00640D4
S113055000BE7047024B034A0349D1507047C0465E
S1130560080D000000E000E00000000000F03CFB8B
S1130570FFF7F0FF0848094A0021121A00F0A2FA16
S113058000F066FB00F0E4FA00F03CFB04490020B4
S113059000F066F800F07AFA00F0FF1F80F0FF1F09
S11305A000F0FF1F00B5FEE7054B06480022DA7095
S11305B04179997082795A70C07918707047C04631
S11305C02CF0FF1F30F0FF1F044A054B0548DA608A
S11305D0426908218A4342617047C0460301000012
S11305E000B0044080F00F4030B50023934206D0A1
S11305F0C55CCC5C0133A542F8D0012000E00020AA
S113060030BD82B00190019180F3088880F309889D
S11306108F4602B0704738B5C478AA220319552111
S113062006341A715971E4B2051C002C06D02878DE
S1130630013CFFF753FFE4B20135F6E738BD000093
S1130640044A054B0548D15800B589B20143D1503D
S1130650FEE7C04600E000E00C0D00000400FA05CF
S1130660F0B5002397B0DB4A05931078DA4F41B216
S1130670994200DA3B6072B6D84CD94D8023665952
S1130680DA043243D74862512158E0256E01D64A34
S11306900E432650A35801235842D44DA050665906
S11306A001210E436651D24EFFF78EFF72698023FB
S11306B05800D04D1043706169692022114369616B
S11306C02B68802013432B6041010A680192511C5E
S11306D00FD0A0235801C8490822FFF785FF01283D
S11306E007D0C64801690A0703D53A68BA4B0B2AF2
S11306F008D1C04C202521680026A94321603E6012
S1130700012709E000270A2A00D083E12A68202073
S113071082432A601F600227B94BBA4A802001979E
S113072087005A609F60FFF701FF6E466F46002402
S1130730694604AD11361237CC732C7034703C709A
S1130740CC74FFF765FEFFF7D3FEAF4A1070242880
S113075003D1059468460124C4736946CB7B012BFD
S113076030D1FFF7C5FEA84A5070FFF7C1FEFFF76E
S1130770BFFEA54C3070E0700630C0B20421287072
S113078039703478631EDAB23270002C08D03C78A9
S1130790FFF7AEFE9C4908550134E0B23870F0E72B
S11307A03E78FFF7A5FE984988550136F0B23870B7
S11307B03E78FFF79DFE944B694698550136F2B298
S11307C03A70CC73904E6B4670781333341C012806
S11307D00CD12A78B11802390A78AA2A06D12D78C0
S11307E0711901390A78552A00D11870187801282E
S11307F000D0E2E0854B79495525AA22CD50CA5054
S11308003079492812D006D8452800D18BE04728F2
S113081000D0C3E0B7E0522800D19FE0572800D0B1
S1130820BCE0FFF7C1FE327A002385E00423724A5C
S11308301D1CD1184E79E654002E02D00133DBB2D0
S1130840F5E75C1B1019417F6F485E1CC1540029F9
S113085001D0F3B2F5E7F4B240259E1C0555F4B27D
S11308600425DE1C0555F4B2161C2E3601553478C9
S11308705919161CCDB22D364455591D3478161C01
S1130880CDB22C364455991D3478161CCDB236366B
S11308904455D91D3478161CCDB23536191C44552F
S11308A008313478161CCDB23436191C445509313C
S11308B03478161CCDB23A36191C44550A313478B2
S11308C0161CCDB23936191C44550B313478161C1C
S11308D0CDB23836191C44550C313478CDB2445558
S11308E0191C151C0D3132352C78CEB2151C191C6F
S11308F00E3131358455CCB22978303201551C1C67
S113090012780F341033DBB20121E5B24255C154E1
S1130910C670FFF780FE019801283FD1A026700120
S1130920FFF7B0FD3AE0FFF73FFE394B1868FFF7D9
S1130930A9FD002832D10FE0DDB206A9954204D208
S1130940E518687AC8540133F6E73148920800681C
S1130950FFF7B0FD002801D1F07010E0FFF724FE8E
S11309602B4A317A1268131C9D1AE8B2884205D2C8
S11309701D78A01AC01805710133F5E7F170201C29
S1130980FFF749FE0AE0019F012F05D1A024600171
S113099019490222FFF78EFDFFF752FE00256C462F
S11309A0E5733D703D784F2D07D838783C78164E66
S11309B0002101343154E5B2F3E7059F013705976F
S11309C0059A092A00D8B0E6019B022B00D0ACE6B8
S11309D0E2E7C04600F00740F82F00200070044012
S11309E00410000034100000381000003C10000017
S11309F000C00440C0F00F40840C000080F00F40A1
S1130A00009004400202000030F0FF1F04110000B7
S1130A102CF0FF1F1448154AC770716920200A4042
S1130A2072616E69124A86436E6129688143296046
S1130A30104D1048665910493240225065580F4EE7
S1130A400D4A2E400E48A65022580E4927508025A4
S1130A500D4C6E010E511F60064B01981968FFF78B
S1130A60D0FD381C17B0F0BD00A00640FFFEFFFF0C
S1130A70FFFFFFFB0410000034100000FFE3FFFF42
S1130A803810000000E000E0080D000038B5051C37
S1130A9000F09CF800F080F8084C2368002B02D08A
S1130AA0984700202060064C2168002902D088471E
S1130AB000222260281CFFF775FD38BD04F0FF1FDB
S1130AC008F0FF1F10B5041C00F002F8201C10BD34
S1130AD030B5C9B2031C1F2A31D944420323234031
S1130AE005D0D21AC51801700130A842FBD10029E3
S1130AF005D00D060C042C430B0221431943540961
S1130B00031C002C0ED0251C013D1960596099600E
S1130B10D960196159619961D9612033002DF3D1EC
S1130B206301C318D006400F07D0041C1D1C013CF0
S1130B3002C5002CFBD180001B18032422409D1801
S1130B40002A03D019700133AB42FBD130BD000041
S1130B5010B50B4C0B4B9C4202D001CC8047F9E7FB
S1130B60094C0A48844202D008CC9847F9E7084C5B
S1130B7008498C4202D004CC9047F9E710BDC04626
S1130B80C40C0000C40C0000C40C0000C40C000021
S1130B90C40C0000C40C000010B5084C084B9C4267
S1130BA002D004CC9047F9E7064C0748844203D0AE
S1130BB0043C21688847F8E710BDC046C40C000017
S1130BC0C40C0000C40C0000C40C0000054B10B59C
S1130BD01C68002C04D0A068616888472468F8E782
S1130BE010BDC0460CF0FF1F054B181C002805D093
S1130BF0854681B00020C043009001B0F74670479D
S1130C00F82F0020F746704700B588421FD0002A0D
S1130C101DD00323194207D1184205D19A4203D9A2
S1130C2008C9043A08C0F2E70123194209D118425D
S1130C3007D19A4205D90B88023A03800231023067
S1130C40E5E70B78013A037001310130DFE700BDBD
S1130C5038B50B4D002D11D000242B19196800292B
S1130C6006D02B1958689A68FFF7CEFF0C34F4E7C6
S1130C705A68002AF5D198680028F2D138BDC046D8
S1130C80C40C00004150505F4F4B0000014D4B4CD1
S1130C9032365A31323823000000000000000000D0
S1130CA000312E302300000000000000000440004A
S1130CB00000020000100000FC030000FF0300001D
S1070CC00100C04625
S1130CC4C40C000000F0FF1F00000000000000003E
S10B0CD4000000000000000014
S903056D8A
