S01300006B32325F6C65645F6170702E737265630E
S1134000F8FF0020D94400000545000005450000E4
S113401005450000054500000545000000000000BE
S11340200000000000000000000000000545000042
S1134030054500000000000005450000054500009E
S11340400545000005450000054500000545000044
S11340500545000005450000054500000545000034
S11340600545000005450000054500000545000024
S11340700545000005450000054500000545000014
S11340800545000005450000054500000545000004
S113409005450000054500000545000005450000F4
S11340A005450000054500000545000005450000E4
S11340B005450000054500000545000005450000D4
S11340C005450000054500000545000005450000C4
S11340D005450000054500000545000005450000B4
S11340E005450000054500000545000005450000A4
S11340F00545000005450000054500000545000094
S1134100294800000545000005450000054500005C
S11341100545000005450000054500000545000073
S11341200545000005450000054500000545000063
S11341300545000005450000054500000545000053
S11341400545000005450000054500000545000043
S11343F0054500000545000005450000FFFFFFFFDF
S1134400FFFFFFFFFFFFFFFFFFFFFFFFFEFFFFFFB9
S113441010B5054C237833B9044B13B10448AFF3FA
S113442000800123237010BD6800FF1F00000000FE
S11344304449000008B5064B1BB106480649AFF3D2
S113444000800648036813B1054B03B1984708BDC3
S113445000000000444900006C00FF1F6400FF1FBF
S113446000000000154B002B08BF134B9D46A3F51D
S1134470803A00218B460F461348144A121A00F062
S113448053FA0F4B002B00D098470E4B002B00D053
S113449098470020002104000D000D48002802D098
S11344A00C48AFF3008000F019FA2000290000F056
S11344B025F900F0FFF900BF00000800F8FF002014
S11344C000000000000000006800FF1F9000FF1FB4
S11344D0000000000000000072B600F0CDF962B6E2
S11344E00549064A064B9A42BEBF51F8040B42F8EE
S11344F0040BF8E7FFF7B6FF6C4900000000FF1F4C
S11345006800FF1FFFF7FEBF80B400AFBFF34F8FFB
S1134510054A054BDB6803F4E061044B0B43D360AD
S1134520BFF34F8F00BFFDE700ED00E00400FA0584
S113453080B500AF0D4B4FF440725A600B4B4FF4F3
S113454040721A600A4B00221A70094B88225A7072
S1134550074B0C22DA7001E000F00CF8044B1B79D5
S1134560DBB203F02003002BF6D180BD00D0044061
S113457000B0064080B483B000AF0023FB7100BFDD
S1134580084B1B79DBB203F02003002BF8D0054B5A
S1134590DB79FB71FB7918460C37BD465DF8047B6B
S11345A0704700BF00B0064090B583B000AF002351
S11345B07B710023FB710123BB71FFF7DBFF034613
S11345C01A463E4B1A707B79012B42D1FFF7D2FF7A
S11345D003461A46394B5A70FFF7CCFFFFF7CAFF60
S11345E003461A46354BDA70344BDA78344B1A707A
S11345F0324BDB780633DAB2324B1A700423BB71C8
S113460009E0BB795A1CBA711C46FFF7B3FF034695
S11346101A462A4B1A552A4B1B785A1ED1B2284ADD
S11346201170002BEDD1BB795A1CBA711C46FFF7EF
S1134630A1FF03461A46214B1A55BB795A1CBA717D
S11346401C46FFF797FF03461A461C4B1A550023D6
S11346507B711A4B5A7801239A420FD1194B1B785C
S1134660023B164AD35CAA2B08D1164B1B78013B9C
S1134670124AD35C552B01D10123FB71FB79012B29
S113468018D10E4B1B79422B03D00C4B1B79562BA4
S113469010D172B6094B1B79422B02D10A4B0B2263
S11346A01A60064B1B79562B02D1074B0A221A605B
S11346B0FFF72AFF0C37BD4690BD00BF8400FF1FE3
S11346C08C00FF1F0000FF1FF8FF002080B483B0A0
S11346D000AF0346FB71084B97F907205209F9799B
S11346E001F01F01012000FA01F143F822100C37F8
S11346F0BD465DF8047B704700E100E080B500AF83
S113470062B62E492D4B03F5815318331B6843F4CD
S1134710085201F5815318331A6000F099F82749BB
S1134720264B03F5815314331B6843F4006201F5EF
S1134730815314331A60214B03F5815318331B68DA
S11347401E4B03F5815318334FF0FF321A601B4997
S11347501A4B03F581531C331B6843F0010201F526
S113476081531C331A60FFF7E3FE154B4FF480723C
S11347705A60134B4FF480729A60124B114A52697B
S113478042F002025A610F4B0E4A526942F004028F
S11347905A610C4B0B4A126842F004021A60094B2E
S11347A0084A926842F002029A6000F00DF8302044
S11347B0FFF78CFFFFF7F8FEFCE700BF0070044032
S11347C00090044000F00F4080B400AF1349134B35
S11347D003F581531C331B6843F4000201F5815334
S11347E01C331A600E4B00221A600D4B0D4AC3F89D
S11347F000210B4B0A4AD2F8182142F00202C3F8F6
S11348000821074B064AD2F8082142F00102C3F8F6
S11348100821BD465DF8047B704700BF007004406A
S113482000700340FFFF3F0080B400AF064B02223C
S1134830DA60064B0122C3F80C21044BD3F808318B
S1134840BD465DF8047B704700F00F4000700340E4
S113485080B400AF074B0022DA74064B00229A742E
S1134860044B00225A74034B00221A74BD465DF8AF
S1134870047B70470000024080B400AF0B4B0B4A2E
S1134880D2F8882042F47002C3F88820084B4CF216
S11348902052DA81064B4DF62812DA81044B4FF48C
S11348A0E9721A80BD465DF8047B704700ED00E0B4
S11348B00020054008B5074B044613B10021AFF3AF
S11348C00080054B1868836A03B19847204600F0BE
S11348D033F800BF000000004049000070B50E4BE3
S11348E00E4DED1AAD1000241E46AC4204D056F80D
S11348F0242090470134F8E700F024F8084D094BD0
S1134900ED1AAD1000241E46AC4204D056F8242003
S113491090470134F8E770BD644900006449000021
S1134920684900006449000002440346934202D0EF
S113493003F8011BFAE77047FEE700BF43000000DD
S11349400400FF1FF8B500BFF8BC08BC9E467047C2
S10F4950F8B500BFF8BC08BC9E467047D8
S10B495C08FBFF7F01000000CD
S107496435440000D2
S107496811440000F2
S113496CFF00000000000000000000000000000038
S113497C0000000000000000000000000000000027
S113498C000000003C490000000000000000000092
S113499C0000000000000000000000000000000007
S11349AC00000000000000000000000000000000F7
S11349BC00000000000000000000000000000000E7
S10B49CC0000000000000000DF
S90344D9DF
