S01E0000757365725F6170705F7265645F626C696E6B5F6B32322E7372656370
S113400000000120D94400000545000005450000DA
S113401005450000054500000545000000000000BE
S11340200000000000000000000000000545000042
S1134030054500000000000005450000054500009E
S11340400545000005450000054500000545000044
S11340500545000005450000054500000545000034
S11340600545000005450000054500000545000024
S11340700545000005450000054500000545000014
S11340800545000005450000054500000545000004
S113409005450000054500000545000005450000F4
S11340A005450000054500000545000005450000E4
S11340B005450000054500000545000005450000D4
S11340C0054500000D4600000545000005450000BB
S11340D005450000054500000545000005450000B4
S11340E005450000054500000545000005450000A4
S11340F00545000005450000054500000545000094
S1134100B5470000054500000545000005450000D1
S11341100545000005450000054500000545000073
S11341200545000005450000054500000545000063
S11341300545000005450000054500000545000053
S11341400545000005450000054500000545000043
S11343F0054500000545000005450000FFFFFFFFDF
S10F44004150505F4F4B000000000000D2
S113441010B5054C237833B9044B13B10448AFF3FA
S113442000800123237010BD6400FF1F0000000002
S1134430D048000008B5064B1BB106480649AFF347
S113444000800648036813B1054B03B1984708BDC3
S113445000000000D04800006800FF1F6000FF1F3C
S113446000000000154B002B08BF134B9D46A3F51D
S1134470803A00218B460F461348144A121A00F062
S113448019FA0F4B002B00D098470E4B002B00D08D
S113449098470020002104000D000D48002802D098
S11344A00C48AFF3008000F0DFF92000290000F091
S11344B0DFF800F0C5F900BF00000800000001208B
S11344C000000000000000006400FF1F8C00FF1FBC
S11344D0000000000000000072B600F093F962B61C
S11344E00549064A064B9A42BEBF51F8040B42F8EE
S11344F0040BF8E7FFF7B6FFF84800000000FF1FC1
S11345006400FF1FFFF7FEBF80B400AFBFF34F8FFF
S1134510054A054BDB6803F4E061044B0B43D360AD
S1134520BFF34F8F00BFFDE700ED00E00400FA0584
S113453080B400AF0E4B4FF440725A600C4B4FF4F2
S113454040721A600B4B00221A700A4B88225A7070
S1134550084B0C22DA70074B064AD278D2B242F0EA
S11345602002D2B2DA70BD465DF8047B704700BF0A
S113457000D0044000B0064080B582B000AF0023F4
S1134580FB711F4B1B78242B05D11D4BDB780633A5
S1134590DAB21C4B1A701A4B5A7801239A420FD183
S11345A0184B1B78023B164AD35CAA2B08D1154B37
S11345B01B78013B124AD35C552B01D10123FB71BB
S11345C0FB79012B18D10E4B1B79422B03D00C4BDA
S11345D01B79562B10D172B6094B1B79422B02D191
S11345E0094B0B221A60064B1B79562B02D1064B42
S11345F00A221A60FFF788FF0837BD4680BD00BF56
S11346008000FF1F8800FF1FF8FF002080B400AF68
S1134610084B1B79084B1B785A1CD1B2064A1170FF
S1134620044AD279D1B2054AD154BD465DF8047B1F
S1134630704700BF00B006408900FF1F8000FF1FC5
S113464080B483B000AF0346FB71084B97F9072091
S11346505209F97901F01F01012000FA01F143F830
S113466022100C37BD465DF8047B704700E100E082
S113467080B500AF62B63349324B03F5815318332A
S11346801B6843F4085201F5815318331A6000F093
S1134690A5F82C492B4B03F5815314331B6843F4C1
S11346A0006201F5815314331A60264B03F58153DC
S11346B018331B68234B03F5815318334FF0FF3233
S11346C01A6020491F4B03F581531C331B6843F0C8
S11346D0010201F581531C331A60FFF729FF2120E1
S11346E0FFF7AEFF184B4FF480725A60164B4FF42D
S11346F080729A60154B154A526942F002025A615F
S1134700124B124A526942F004025A610F4B0F4A8B
S1134710126842F004021A600C4B0C4A926842F090
S113472002029A6000F016F83020FFF789FF084B68
S11347301B78072B05D1064B00221A70FFF71CFFCC
S1134740F5E7F4E7007004400090044000F00F40E7
S11347508900FF1F80B400AF1349134B03F5815345
S11347601C331B6843F4000201F581531C331A60A7
S11347700E4B00221A600D4B0D4AC3F800210B4B5F
S11347800A4AD2F8082142F00202C3F80821074B72
S1134790064AD2F8082142F00102C3F80821BD46B6
S11347A05DF8047B704700BF007004400070034054
S11347B0FFFF3F0080B400AF064B0222DA60064BD5
S11347C00122C3F80C21044BD3F80831BD465DF82F
S11347D0047B704700F00F400070034080B400AFCA
S11347E0074B0022DA74064B00229A74044B002211
S11347F05A74034B00221A74BD465DF8047B70475B
S11348000000024080B400AF0B4B0B4AD2F8882062
S113481042F47002C3F88820084B4CF22052DA812B
S1134820064B4DF62812DA81044B4FF4E9721A80D4
S1134830BD465DF8047B704700ED00E000200540B4
S113484008B5074B044613B10021AFF30080054BB4
S11348501868836A03B19847204600F033F800BF14
S113486000000000CC48000070B50E4B0E4DED1A50
S1134870AD1000241E46AC4204D056F824209047C4
S11348800134F8E700F024F8084D094BED1AAD1097
S113489000241E46AC4204D056F82420904701342C
S11348A0F8E770BDF0480000F0480000F44800004C
S11348B0F048000002440346934202D003F8011B6F
S11348C0FAE77047FEE700BF430000000000FF1F47
S11348D0F8B500BFF8BC08BC9E467047F8B500BFE9
S10B48E0F8BC08BC9E467047B9
S10B48E87CFBFF7F01000000CE
S10748F03544000047
S10748F41144000067
S11348F800000000000000000000000000000000AC
S1134908000000000000000000000000000000009B
S1134918C84800000000000000000000000000007B
S1134928000000000000000000000000000000007B
S1134938000000000000000000000000000000006B
S1134948000000000000000000000000000000005B
S10749580000000057
S90344D9DF
