S0190000626F6F746C6F616465725F6B6C32365F63772E68657871
S1130000F82F0020650500003D0500003D050000B7
S113001000000000000000000000000000000000DC
S11300200000000000000000000000003D0500008A
S113003000000000000000003D0500003D05000038
S11300403D0500003D0500003D0500003D050000A4
S1130050000000003D0500003D0500003D050000D6
S11300603D0500003D0500003D0500003D05000084
S11300703D0500003D0500003D0500003D05000074
S11300803D0500003D0500003D0500003D05000064
S11300903D0500003D0500003D0500003D05000054
S11300A03D0500003D0500003D0500003D05000044
S11300B03D0500003D0500003D0500003D05000034
S1130400FFFFFFFFFFFFFFFFFEFFFFFFFEFBFFFFFE
S1130410034B8022D96850020843D8607047C04615
S1130420003000F010B5124A137859B20029FADAF4
S11304307024104B1470011DCCB2D9B28C4207D079
S11304400D490E4C591809190C781C700133F2E748
S11304501078802303431370147861B20029FBDA07
S1130460034A31231078064C1840206010BDC04662
S113047000000240040002401CF0FF1FFCFFFDBF0F
S113048028F0FF1F08B5044B092218600420DA7015
S1130490FFF7C8FF08BDC0461CF0FF1F08B5044B9A
S11304A0062218600820DA705960FFF7BBFF08BD08
S11304B01CF0FF1FF8B5071C0E1C141C0D1CB81BE8
S11304C02818002C07D002CDFFF7E8FF013C0028D4
S11304D0F5D0012000E0201CF8BD000000B5034B5E
S11304E01A795106FBD5D87100BDC04600A006405C
S11304F007B5074B019307480179021C8B0601D508
S1130500D0790EBD019B581E0190002BF3D1F7E763
S11305103333030000A00640074B002288200C213F
S113052010B51A701C1C5870D97023799A0602D51C
S1130530FFF7DEFFF9E710BD00A0064000BE7047DC
S11305400449054B054A0020D1508823044A590127
S11305505050704700000000080D000000E000E06B
S11305600070044000F0C4FAFFF7EAFF0848094AA3
S11305700021121A00F02AFA00F0EEFA00F06CFAE8
S113058000F0C4FA0449002000F066F800F002FA12
S113059000F0FF1F80F0FF1F00F0FF1F00B5FEE713
S11305A0054B06480022DA704179997082795A70B5
S11305B0C07918707047C0462CF0FF1F30F0FF1F41
S11305C0044A054B0548DA60426908218A434261BE
S11305D07047C0460301000000B0044080F00F40A3
S11305E030B50023934206D0C55CCC5C0133A542F0
S11305F0F8D0012000E0002030BD82B001900191CC
S113060080F3088880F309888F4602B0704738B5B4
S1130610C478AA220319552106341A715971E4B217
S1130620051C002C06D02878013CFFF757FFE4B2E4
S11306300135F6E738BD0000044A054B0548D1589A
S113064000B589B20143D150FEE7C04600E000E0A6
S11306500C0D00000400FA05F0B5002197B00591D7
S113066072B6B54CB54B8020E258C504B34E154361
S1130670B34FA551E159E023B1485A010A43B14DA2
S11306802250012663597742AF4B6751E25801214A
S11306900A43AE4EE250FFF793FF802570696F0066
S11306A00743AB4D77616B69202213436B61296863
S11306B080201143296047013B68A64F01935A1CCF
S11306C00DD0A548A5490822FFF78AFF012806D0C6
S11306D0A34A1169090702D538680B280AD19C4D31
S11306E020212B689A488B43002603603E60012733
S11306F001970AE00A2800D0F0E028682026B043D9
S11307000024022228603C600192964C964A80257F
S1130710AB006260A360FFF7FFFE6E466D460024E7
S1130720694611361235CC730C7434702C70CC7449
S1130730FFF76EFEFFF7DCFE8C4F3870242803D1E0
S113074001236A460594D3736C46E17B01292CD1BD
S1130750FFF7CEFE7870FFF7CBFEFFF7C9FE3070CF
S1130760F8700630C0B2042320742B7034787F4FA5
S1130770621ED1B23170002C07D02C78FFF7B8FE7E
S113078038550134E0B22870F0E72E78FFF7B0FE58
S1130790B8550136F0B228702E78FFF7A9FEB85587
S11307A00136F3B26A462B70D47369460C7C6F4EE3
S11307B06B463719023F38781333341CAA2807D103
S11307C00A7CB11801390F78552F01D10120187016
S11307D01B78012B76D1664F57495522AA20CA515E
S11307E0C8513379492B0ED004D8452B22D0472B3E
S11307F05AD14FE0522B38D0572B55D1FFF7D0FEAA
S11308000027327A1FE004215A4A5318043B1F7808
S11308106754002F02D00131C9B2F5E70439201C16
S1130820F170FFF7F4FE019E012E3DD14A48FFF717
S113083029FE39E0FFF7B4FE4F4F3868FFF722FE78
S1130840002831D10FE0F8B206A9904204D2E01991
S1130850437ACB550137F6E7474B92081868FFF700
S113086029FE002801D1F07010E0FFF799FE424AFA
S1130870317A1268131C9F1AF8B2884205D21F7885
S1130880A01AC01807710133F5E7F170201CFFF7B7
S1130890BEFE09E0019D012D04D12F482F490222FB
S11308A0FFF708FEFFF7C8FE00216846C1732970F0
S11308B029784F2906D82B782E7800270136E7545B
S11308C0F1B2F4E7059C01340594059D092D00D887
S11308D023E7019A022A00D01FE7E3E7274B00220F
S11308E0DA70716926482022084070616E692548D3
S11308F096436E612B68114E93432B600F4D104A43
S11309006159214B0840A051A5580D492B400D4871
S11309106350002623581D4A265080251C4C6B0129
S1130920002113513960054F01983968FFF765FEBE
S1130930002017B0F0BDC046007004400410000051
S113094034100000381000003C10000000C00440C7
S1130950C0F00F40F82F0020F8FF01008C0B0000BE
S113096080F00F40009004400202000030F0FF1FAE
S113097004110000940B00002CF0FF1F00A006409F
S1130980FFFEFFFFFFFFFFFBFFE3FFFF00E000E0D0
S1130990080D000038B5051C00F09CF800F080F844
S11309A0084C2368002B02D0984700202060064C96
S11309B02168002902D0884700222260281CFFF702
S11309C0EDFD38BD04F0FF1F08F0FF1F10B5041C37
S11309D000F002F8201C10BD30B5C9B2031C1F2A58
S11309E031D944420323234005D0D21AC5180170DB
S11309F00130A842FBD1002905D00D060C042C437C
S1130A000B02214319435409031C002C0ED0251C4E
S1130A10013D196059609960D96019615961996102
S1130A20D9612033002DF3D16301C318D006400FE0
S1130A3007D0041C1D1C013C02C5002CFBD1800006
S1130A401B18032422409D18002A03D01970013377
S1130A50AB42FBD130BD000010B50B4C0B4B9C429C
S1130A6002D001CC8047F9E7094C0A48844202D0FD
S1130A7008CC9847F9E7084C08498C4202D004CCCA
S1130A809047F9E710BDC046A80B0000A80B000072
S1130A90A80B0000A80B0000A80B0000A80B000086
S1130AA010B5084C084B9C4202D004CC9047F9E79F
S1130AB0064C0748844203D0043C21688847F8E781
S1130AC010BDC046A80B0000A80B0000A80B000036
S1130AD0A80B0000054B10B51C68002C04D0A068BE
S1130AE0616888472468F8E710BDC0460CF0FF1F12
S1130AF0054B181C002805D0854681B00020C04352
S1130B00009001B0F7467047F82F0020F746704771
S1130B1000B588421FD0002A1DD00323194207D1F3
S1130B20184205D19A4203D908C9043A08C0F2E729
S1130B300123194209D1184207D19A4205D90B88D9
S1130B40023A038002310230E5E70B78013A037080
S1130B5001310130DFE700BD38B50B4D002D11D058
S1130B6000242B191968002906D02B1958689A6893
S1130B70FFF7CEFF0C34F4E75A68002AF5D19868E1
S1130B800028F2D138BDC046A80B00004150505F88
S1130B904F4B00004D4B4C32365A31323800000076
S10B0BA0000000000000000049
S1130BA8A80B000000F0FF1F000000000000000078
S10B0BB8000000000000000031
S903056592
