:1000000068F4FF1F150C0000DF0B0000EB0B000075
:1000100000000000000000000000000000000000E0
:10002000000000000000000000000000390C00008B
:1000300000000000000000003B0C00003D0C000030
:100040003F0C0000410C0000430C0000450C000078
:10005000470C0000490C00004B0C00004D0C000048
:100060004F0C0000510C0000530C0000550C000018
:10007000570C0000590C00005B0C00005D0C0000E8
:100080005F0C0000610C0000630C0000650C0000B8
:10009000670C0000690C00006B0C00006D0C000088
:1000A0006F0C0000710C0000730C0000750C000058
:1000B000770C0000790C00007B0C00007D0C000028
:1000C000FFFFFFFFFFFFFFFFFEFFFFFFFEFBFFFF46
:10041000FF20001D2B4908602B48006808218843F5
:1004200029490860704710B500E0521E002A0BD021
:1004300003001800401C0C002100491C1B78247884
:10044000A342F2D0012000E0002010BD81B0009056
:10045000009180F3088880F309888F4601B07047C7
:1004600000201A49C8701A484079184988701848FD
:100470008079164948701648C07914490870704749
:1004800070B504000025E678AA20F6B2A11908711B
:100490005520F6B2A1194871B61D05E0EDB2605DB8
:1004A00000F049FA761E6D1CF6B2002EF6D170BD32
:1004B00000B5084800680849014008480843054954
:1004C0000860FEE70CB0044094F00F405CF0FF1FA2
:1004D00000F0FF1F0CED00E0FFFFFA050400FA0535
:1004E00030B593B000200190002472B6C248006875
:1004F0008021C9040143C0480160C6480068E0216A
:1005000049010143C3480160C34800680020C0435B
:10051000C1490860C148006801210143BF4801602A
:10052000FFF776FFBE480068802149000143BC48C0
:100530000160BC48006820210143BA480160BA4804
:10054000006820210143B8480160B84800680021D4
:10055000C94388420ED00822B549B648FFF763FF69
:10056000012807D0B4480068000703D5B3480068E5
:100570000B280AD10124AC48006820218843AA49ED
:1005800008600020AD4908600DE0AC4800680A280A
:1005900009D10224A448006820218843A2490860A8
:1005A0000020A6490860E4B2002C22D0C348C44908
:1005B000086080208000C349086000F0A7F918E0B7
:1005C0000020C1496A461278885468460078401C69
:1005D00069460870684600785028F1DB0198401C95
:1005E000019001980A2804D3E4B2022C01D1FFF74C
:1005F0005FFFE4B2002C00D129E100206946487079
:10060000FF206946C870002069468870012069464D
:10061000087000206946087200F0B2F900F093F902
:10062000A9490870A8480078242804D10020019026
:1006300001206946487068464078012842D100F0A0
:1006400082F9A149487000F07EF900F07CF99E49DA
:10065000C8709D48C078694688709B48C078801DE6
:100660006946C8700420694608700AE06846057843
:100670002800401C6946087000F065F99249EDB207
:10068000485568468078411E6A469170C0B200287D
:10069000ECD1684605782800401C6946087000F0D7
:1006A00052F98949EDB24855684605782800401C42
:1006B0006946087000F047F98349EDB248550020BB
:1006C0006946487080486946C9784018801E00789D
:1006D000AA280AD17C486946C9784018401E00788B
:1006E000552802D10120694608726846007A01281F
:1006F00000D073E7002100220020552073490860D4
:10070000AA207249086070480079452825D04728FA
:1007100074D0492804D0522854D057282CD08FE0C8
:10072000042100E0491C6A48C9B24018001F007843
:10073000654AC9B250546448C9B2405C0028F1D13E
:10074000081F6149C8706048FFF79AFEE4B2012CA7
:1007500002D1384800F03DF972E0FFF781FE5D48B4
:10076000006800F036F9002805D100205649C8700D
:100770005548FFF785FE63E0FFF772FE5248007AA6
:100780000022092107E0504BC9B25B5C03ADD2B235
:10079000AB54521C491CD2B2C0B28242F3D3C0B295
:1007A000042100F069F9020003A94A48006800F03A
:1007B000FBF8002806D100204349C8704248FFF7E3
:1007C0005FFE3DE0FFF74CFE3F48007A002108E065
:1007D000404A1268C9B2525C3B4BC9B25B181A71ED
:1007E000491CC9B2C0B28142F2D33749C8703648F9
:1007F000FFF746FE24E000BF04800440E4B2012C71
:1008000004D102220A490B4800F0CEF8FFF750FE4F
:1008100016E000BF34800440388004403C8004402F
:1008200014C00440D4F00F40C0F00F400810000086
:10083000300C0000F8FF010090F00F40F82F00206E
:10084000002069464870002069460870C2E6002012
:100850002149087021480068214901401F48016072
:1008600020480068202188431E4908601E4800680F
:10087000202188431C4908601C4800681C4901402D
:100880001A4801601B4800681B4901401948016073
:100890001A48006800201949086080204001184962
:1008A000086000201749086017480168802040014F
:1008B0000068FFF7CBFD002013B030BD020200003E
:1008C000049004400890044000F0FF1F048104409D
:1008D000000C00005CF0FF1F03A0064014C00440A1
:1008E000FFFEFFFFD4F00F40C0F00F400480044033
:1008F000FFFFFFFB34800440FFE3FFFF388004402C
:1009000008ED00E0F82F00200410000080B58820DA
:100910000100090AC906C90E134A1170134908706B
:100920000C201349087001E000F00DF81148007820
:100930008006F9D401BD00B50E4909784906FBD5FA
:100940000D49087000BD80B500200C480090094892
:100950000078800604D40098411E00910028F6D14A
:1009600005480078C0B202BD00A0064001A00640C4
:1009700003A0064004A0064007A00640333303004E
:100980002D4800688021490201432B4801607047CF
:1009900080B52A4A10600620284AD0702748416056
:1009A000082000F020F802BD70B505000C0016000C
:1009B00000E02D1D3000461E002808D021682800C8
:1009C000FFF7E6FF241D0028F3D0012000E00020FF
:1009D00070BD80B51949086009201849C870042005
:1009E00000F001F802BD10B51549144A154B1B78EB
:1009F0001B06FBD57023134C237003E013780B7098
:100A0000521C491C0300581EDBB2002BF6D10D48C6
:100A10000078802101430B4801700A4800780006E5
:100A2000FBD508480078C0B231210140064801607A
:100A30000548006810BD00000C3000F050F0FF1FAA
:100A4000040002400000024060F0FF1FF44600284E
:100A500004D4494200F013F8404260474042002964
:100A600005D45FD000F00BF840424942604749424C
:100A700000F005F84942604703460B43E6D40022E4
:100A8000030A8B420BD203098B4219D243088B42D3
:100A90002ED2411A00D20146524110467047FF2221
:100AA00009023FD012068B4205D3121209028B4273
:100AB00001D31212090203098B4219D300E0090A7B
:100AC000C3098B4201D3CB01C01A524183098B4227
:100AD00001D38B01C01A524143098B4201D34B0110
:100AE000C01A524103098B4201D30B01C01A524173
:100AF000C3088B4201D3CB00C01A524183088B42FA
:100B000001D38B00C01A524143088B4201D34B00E2
:100B1000C01A5241884200D3401A5241CFD20146F6
:100B20001046704708B500F001F808BD704730B4B2
:100B3000012100220368001D002B0BD00468001D5A
:100B40000C4202D04D466D1E64192260241D1B1FED
:100B5000F0D0FAE730BC704700B5074800780007CE
:100B600005D505480078082101430348017000209D
:100B70000249086000BD000002D007400081044027
:100B800010B5074979441831064C7C44163404E00A
:100B9000081D0A68891888470100A142F8D110BDD4
:100BA000080000001400000087FFFFFF6400000041
:100BB00000F0FF1F0000000000F00BF8002801D03B
:100BC000FFF7DEFF0020C046C046FFF789FC00F0BB
:100BD00002F80120704780B500F002F801BDFEE781
:100BE0000746384600F002F8FBE7FEE780B5C0464E
:100BF000C046024A11001820ABBEFBE726000200E7
:100C00004D4B4C32365A31323800000000000000A3
:100C1000000000000148804701480047590B0000D0
:100C2000250C0000C046C046C046C046FFF7C4FFC2
:100C30004150505F4F4B0000FEE7FEE7FEE7FEE746
:100C4000FEE7FEE7FEE7FEE7FEE7FEE7FEE7FEE77C
:100C5000FEE7FEE7FEE7FEE7FEE7FEE7FEE7FEE76C
:100C6000FEE7FEE7FEE7FEE7FEE7FEE7FEE7FEE75C
:0E0C7000FEE7FEE7FEE7FEE7FEE7FEE7FEE733
:0400000500000C25C6
:00000001FF
