:020000040000FA
:100000000004FF1FBF040000CB040000CD0400006B
:10001000CF040000D1040000D30400000000000061
:10002000000000000000000000000000D5040000F7
:10003000D704000000000000D9040000DB04000029
:10004000DD040000DD040000DD040000DD0400002C
:10005000DD040000DD040000DD040000DD0400001C
:10006000DD040000DD040000DD040000DD0400000C
:10007000DD040000DD040000DD040000DD040000FC
:10040000FFFFFFFFFFFFFFFFFFFFFFFFFEFFFFFFFD
:1004100000F002F800F03CF80AA090E8000C8244DA
:100420008344AAF10107DA4501D100F031F8AFF2B7
:10043000090EBAE80F0013F0010F18BFFB1A43F0C2
:1004400001031847200A0000500A0000103A24BF98
:1004500078C878C1FAD8520724BF30C830C144BF29
:1004600004680C607047000000230024002500266B
:10047000103A28BF78C1FBD8520728BF30C148BF07
:100480000B6070471FB500F0C3FC1FBD10B510BD59
:1004900000F03BF81146FFF7F5FF00F02FFA00F0EF
:1004A00059F803B4FFF7F2FF03BC00F05DF8000059
:1004B00080F3088880F309880847000070470B48DC
:1004C00080470B4880470B480047FEE7FEE7FEE702
:1004D000FEE7FEE7FEE7FEE7FEE7FEE7FEE70000D9
:1004E00005480649044A064B704700003D080000D5
:1004F000BD04000011040000D00100200004FF1F13
:100500000000FF1F704770477047754600F028F8DD
:10051000AE4605006946534620F00700854618B0F0
:1005200020B5FFF7DDFFBDE820404FF000064FF09B
:1005300000074FF000084FF0000B21F00701AC4618
:10054000ACE8C009ACE8C009ACE8C009ACE8C00937
:100550008D4670470446AFF300802046FFF7A1FFA9
:10056000004870477001002001491820ABBEFEE72B
:10057000260002007047000040F20310044948645E
:100580000448406D20F4003002494865704700007F
:1005900000A0044000F00F404FF0A27037494864BB
:1005A0000846806B40F4007088633548806C35499C
:1005B0000840334988640846C06C324908403049D5
:1005C000C864A420304948700020304908702E4982
:1005D00008739820087000BF2B48807900F0020053
:1005E0000028F9D000BF2848807900F010000028CA
:1005F000F9D117202449C87000200871487100BF44
:100600002148807900F00C000828F9D180201F498A
:10061000087000201C4908739A2008702420487034
:10062000232008714020487100BF1748807900F0EE
:1006300040000028F9D000BF1348807900F00C007A
:100640000828F9D180201149087000200E4908734C
:100650001A200870232008714020487100BF0A4802
:10066000807900F040000028F9D000BF064880796A
:1006700000F00C000C28F9D1704700000080044005
:1006800000900440FFF8FFFE004006400050064086
:1006900000200649C870064840798870044880796F
:1006A00048700348C07908707047000000000020BF
:1006B000D80000202DE9F04104460027E578AA2162
:1006C000281D21545521681D2154A81DC6B206E0DD
:1006D000E05D00F0FDF8701EC6B2781CC7B2002EB7
:1006E000F6D1BDE8F08130B5034609E013F8014BBF
:1006F00011F8015BAC4201D1521E01E0012030BD76
:10070000002AF3D10020FAE710B50446044804603B
:1007100009200349C87004200249884710BD000021
:10072000CC0000200500002010B503461649174AEA
:1007300000BF1548001F007800F080000028F8D0A6
:100740007020114C241F207003E012F8010B01F8F7
:10075000010B1800A3F10104E3B2F6D10A48001F0F
:10076000007840F08000084C241F207000BF06482D
:10077000001F007800F080000028F8D00248001F19
:10078000007800F0310010BD04000240CC000020D1
:10079000002005E0411E044A515C044A1154401CEB
:1007A000C828F7D370470000290700000400002084
:1007B00070B504460D460548046006200349C8701C
:1007C0000846456008200249884770BDCC000020DB
:1007D0000500002070B505460C46164607E002CC21
:1007E0002846FFF7E5FF08B1012070BD2D1D300040
:1007F000A6F10106F3D100BFF7E7000000BF00BF7C
:1008000000BFBFF34F8F00BF00BF00BF09480068A3
:1008100000F4E06008490843001D0649086000BF75
:1008200000BF00BFBFF34F8F00BF00BF00BF00E09D
:1008300000BFFDE70CED00E00000FA050A48006883
:1008400040F47000084908604CF220500749C88104
:100850004DF62810C8810020C882888042F21070AE
:10086000C880D1200880704788ED00E00020054056
:1008700038B500240948009001E000F035F8084937
:10088000097901F0200121B90098411E009100284A
:10089000F3D10348C479204638BD00000053070057
:1008A00000B0064010B50120084908703820487093
:1008B000002088720C20C87001E0FFF7D9FF0348C0
:1008C000007900F020000028F7D110BD00B00640EC
:1008D00000BF0449097901F040010029F9D001491C
:1008E000C871704700B006404AF202600249888130
:1008F0004BF2804088817047002005402DE9F0418F
:10090000A6B000202590002672B6FC48406B40F44B
:10091000E050FA4948630846806B701E88630846B9
:10092000C06B40F00100C863FFF726FEF448406941
:1009300040F48070F2494861F248006840F02000BD
:10094000F049D439C1F8D4000846D0F8C00040F0CE
:100950002000C1F8C0004FF480408068401C88B17E
:100960000822E9494FF48840FFF7BDFE012809D06D
:10097000E448D438006D00F4003018B1E348006852
:100980000B280DD10126DF481438006820F0200024
:10099000DC49D439C1F8C0000020DC49086010E00F
:1009A000DA4800680A280CD10226D64814380068B4
:1009B00020F02000D349D439C1F8C0000020D34929
:1009C00008604EB1FFF7E8FD40F20230D0494860C0
:1009D000801E0860FFF766FFD4E100202490FF200E
:1009E0002390002022900120219000202090FFF7EA
:1009F0007BFFFFF7CDFEFFF73BFFC64908700846B7
:100A00000078242803D100202590012024909DF80F
:100A10009000012838D1FFF72BFFBE494870FFF73F
:100A200027FFFFF725FFBB49C8700846C078229012
:100A30000846C078801DC0B223900420219008E0B1
:100A4000FFF716FF9DF88440611CC9B22191B1499E
:100A500008559DF88800411EC9B222910028EFD1A7
:100A6000FFF706FF9DF88440611CC9B22191A94996
:100A70000855FFF7FDFE9DF88440611CC9B2219125
:100A8000A4490855002024909DF88C00801EA1499F
:100A9000085CAA2807D19DF88C00401E085C5528E8
:100AA00001D1012020909DF8800001287ED10024F2
:100AB000002700259748007949280AD004DC4528FA
:100AC00075D0472874D12BE1522872D05728F9D11C
:100AD000D8E0042401E0601CC4B2201F8E49085CE9
:100AE0008C4908550028F6D123222046611CCCB23F
:100AF00088490A54274601E0601CC4B2E11B8648BD
:100B00000A30405C834908550028F5D1232220464D
:100B1000611CCCB27F490A547F48401E008B020AF8
:100B20002046611CCCB27B490A547B48401E027EA1
:100B30002046611CCCB277490A547748401EC08ACF
:100B4000020A2046611CCCB272490A547248401E07
:100B5000827D2046611CCCB26E490A546E48401E0C
:100B6000827F2046611CCCB26A490A546A48401E02
:100B7000427F2046611CCCB266490A546648401E3A
:100B8000027F2046611CCCB262490A546248401E72
:100B900090F826202046611CCCB25E490A545E487B
:100BA000401E90F825202046611C03E0DFE059E05C
:100BB000C8E08BE0CCB257490A545748401E90F821
:100BC00024202046611CCCB252490A545248401E8F
:100BD00090F82A202046611CCCB24E490A544E4857
:100BE000401E90F829202046611CCCB249490A5485
:100BF0004948401E90F828202046611CCCB2454947
:100C00000A544548401E90F822202046611CCCB270
:100C100040490A544048401E90F821202046611C5B
:100C2000CCB23C490A543C48401E90F82020204653
:100C3000611CCCB237490A543748401E027820461E
:100C4000611CCCB233490A54201FC8700846FFF714
:100C500031FD012E03D14FF48840FFF755FDFFF71A
:100C600043FE70E0FFF714FD2C490868FFF74CFDC8
:100C700028B900202749C8700846FFF71BFDFFF779
:100C800033FE60E0FFF704FD2248057A00270924BF
:100C900007E02048005D0DF80700781CC7B2601C13
:100CA000C4B2AF42F5DBE91705EB91718A101B491D
:100CB00008686946FFF78EFD28B900201549C870FD
:100CC0000846FFF7F7FCFFF70FFE3CE0FFF7E0FCFC
:100CD0001048057A002407E010480068015D0D4ABD
:100CE000201D1154601CC4B2AC42F5DB0948C5702C
:100CF000FFF7E0FCFFF7F8FD25E00000008004406E
:100D000000C00440D4F00F402C0E0000F8FF00207B
:100D100000D00440D8000020390E00000000002060
:100D2000012E05D1022232494FF48840FFF752FDCF
:100D30003048006840F020002E49C039C1F8C0009A
:100D4000FFF75CFD00BF00BF00202490219009E068
:100D5000002029499DF8842088549DF88400401C77
:100D6000C0B221909DF884009628F1DB00BF259841
:100D7000401C259025980A2803D3022E01D1FFF7A5
:100D80003DFD00BF002E7FF428AE00201B49C87037
:100D90001B48406920F48070194948611548143097
:100DA000006820F020001349C039C1F8D40008467B
:100DB000D0F8C00020F02000C1F8C0001148406BFE
:100DC00020F4E0500F4948630846806B0020886398
:100DD0004FF480400C49086000200C4908604FF433
:100DE000804203CAFFF764FB002026B0BDE8F08113
:100DF0002C0E0000C0F00F40D800002000B00640CC
:100E000000C004400080044008ED00E0F8FF00202E
:100E10004FF04070E1EE100A70470000FFFFFFFF47
:100E2000FFFFFFFFFEFFFFFFFEFBFFFF4150505F94
:100E30004F4B000001000000024D4B3232464E3550
:100E4000313200312E3000000000000000000008A8
:100E5000800000000000080000400000FC030000CB
:100E6000FF030000940E00000000002004000000BA
:100E70004C040000980E000004000020CC0100008B
:100E800068040000980E00000000FF1F000400002E
:080E90006804000000000000EE
:0400000500000411E2
:00000001FF
